:020000040800F2
:10000000884800205D020008650D00087D03000897
:10001000630D00082D0A00084111000800000000CF
:100020000000000000000000000000006F02000857
:10003000E10C000800000000CB020008190E0008C7
:1000400077020008770200087702000877020008AC
:10005000770200087702000877020008770200089C
:10006000770200087702000877020008770200088C
:10007000770200087702000877020008770200087C
:10008000310A0008770200087702000877020008AA
:10009000770200087702000877020008770200085C
:1000A000770200087702000877020008770200084C
:1000B000770200087702000877020008770200083C
:1000C000770200087702000877020008770200082C
:1000D000770200087702000819100008770200086C
:1000E000770200087702000877020008770200080C
:1000F00077020008770200087702000877020008FC
:1001000077020008770200087702000877020008EB
:1001100077020008770200087702000877020008DB
:1001200077020008770200087702000877020008CB
:1001300077020008770200087702000877020008BB
:1001400077020008770200087702000877020008AB
:10015000770200087702000877020008770200089B
:10016000770200087702000877020008770200088B
:10017000770200087702000877020008770200087B
:10018000770200087702000800F002F800F057F844
:1001900014A696E8000CB244B344DA4501D100F04D
:1001A0004EF8BAE80F000FA696E83000A5EB04055C
:1001B00004EB0607AAEB0704A7F101074FEA1515A0
:1001C0004FEA3414A4F10104AC4201D300F037F833
:1001D00013F0010F18BFFB1A43F0010300F001F800
:1001E000DBE71847E838000008390000103A24BF60
:1001F00078C878C1FAD8520724BF30C830C144BF8C
:1002000004680C6070470000704700000023002461
:1002100000250026103A28BF78C1FBD8520728BF16
:1002200030C148BF0B607047642900F0198100207D
:1002300070471FB503F0EDF81FBD10B510BD00F0FD
:1002400077FA1146FFF7F5FF00F0DEFA00F095FAB5
:1002500003B4FFF7F2FF03BC00F09CFA09488047A3
:1002600009480047FEE7FEE7FEE7FEE7FEE7FEE798
:10027000FEE7FEE7FEE7FEE704480549054A064BB0
:1002800070470000310F00088901000888420020F3
:10029000884800208844002088440020EFF3108024
:1002A00072B6704780F310887047424A1368012B7A
:1002B00004D04FF0010313603F4A10603F4A1160C1
:1002C0003F484FF0805101607047EFF3108272B6E3
:1002D0003848016851B34FF00001016036480168A9
:1002E00091B1EFF309811EF0100F08BF21ED108BC3
:1002F00021E9F00F4FF000041EF0100F08BF012499
:1003000041F8044D006801602C490968096808C972
:10031000B1E8F00F002B18BFB1EC108B81F3098806
:100320004EF0100E002B18BF2EF0100E82F3108826
:100330004EF0040E704721490860EFF3148222F05A
:10034000040282F314881C494FF000000860194928
:100350004FF0010008601B481B49D0F8002041EA1B
:100360000201016016484FF0805101601748006893
:10037000006880F3088861B662B670471EF0040F0B
:100380000CBFEFF30880EFF3098020E9F00F40F88D
:1003900004ED40F804ED1EF0040F0CBF80F3088854
:1003A00080F3098800B501F0F9FF5DF804EB4EF029
:1003B000040E704780420020783F00207C3F0020E0
:1003C00004ED00E020ED00E00000FFFF08ED00E09C
:1003D0000FB41CB5074B06AA7B44694600900598EC
:1003E00000F045F90020694600F054F91CBC5DF8A6
:1003F00014FB0000B90200002DE9F0410E4604464E
:10040000002020622046E168884730B3252805D0C7
:10041000D4E901219047206A401CF2E7E1682046B8
:1004200000278847050018D0A5F14100192802D8F7
:1004300020354FF400673246294620462760FFF7F3
:10044000F3FE40B1012804D0F61D26F00706083659
:10045000D8E7361DD6E72846DAE7206ABDE8F081FE
:100460002DE9F0410646002410687529314616A58D
:1004700010D0AFF30080002802DA404213A507E055
:1004800031688A0701D512A502E0490704D511A5F4
:10049000012401E0AFF3008000210A2206F12407C5
:1004A00009E0B0FBF2FCB0FBF2F302FB1C003030C1
:1004B00078541846491C0028F3D123462A46304672
:1004C000BDE8F04100F075B8000000002D0000000C
:1004D0002B0000002000000010B5431C02E010F8C3
:1004E000011B71B18107FAD14FF0013202C88C1A99
:1004F0008C4314EAC211F9D0C01A0A0603D0C01EF8
:1005000010BDC01A10BD0A0401D0801E10BD090222
:10051000FCD0401E10BD40EA010370B59B072ED1F0
:100520004FF00136042A2AD308C810C99D1B9D43E9
:10053000121F15EAC61517D0D8B2E1B2401A50EA18
:10054000056110D198B2A1B2401A50EA05410AD112
:1005500023F07F4024F07F41401A50EA052102D168
:10056000180EA0EB146070BDA342DBD018BA21BAFC
:10057000884201D9012070BD4FF0FF3070BD0AB92B
:10058000002070BD10F8013B11F8014B63B1A3428C
:100590000AD1521E08D010F8013B11F8014B1BB1D3
:1005A000A34201D1521EEDD1181B70BD7047704798
:1005B00070472DE9F0470D4699469246044600F1F2
:1005C00024080168880604D5E06921F01001216043
:1005D00000E00120A84201DD471B00E00027A169DF
:1005E0007A1902EB0900081AA0612078C00602D42B
:1005F0002046AFF30080002608E0D4E901211AF874
:1006000006009047206A401C761C20624E45F4DBB1
:100610002078C0060AD52046AFF3008006E0D4E972
:10062000012130209047206A401C2062381EA7F12B
:100630000107F4DC07E0D4E9012118F80500904730
:10064000206A401C2062281EA5F10105F3DC20462B
:10065000AFF300802078000602D50220BDE8F087C5
:100660000120FBE701694A1C02610878704700B568
:100670008FB0CDE901310021059105497944CDE9DB
:10068000031011466846FFF7B7FE0FB000BD00002B
:10069000E5FFFFFF0A6802F8010B0A6070474FF0A0
:1006A00000020429C0F0128010F0030C00F01B803F
:1006B000CCF1040CBCF1020F18BF00F8012BA8BF4D
:1006C00020F8022BA1EB0C0100F00DB85FEAC17C11
:1006D00024BF00F8012B00F8012B48BF00F8012BC4
:1006E00070474FF0000200B51346944696462039F5
:1006F00022BFA0E80C50A0E80C50B1F12001BFF4DB
:10070000F7AF090728BFA0E80C5048BF0CC05DF840
:1007100004EB890028BF40F8042B08BF704748BF8E
:1007200020F8022B11F0804F18BF00F8012B704702
:10073000754600F02BF8AE4605006946534620F09A
:100740000700854618B020B5FFF796FDBDE82040AC
:100750004FF000064FF000074FF000084FF0000B7D
:10076000AC46ACE8C009ACE8C009ACE8C009ACE8EC
:10077000C00921F007018D46704710B50446AFF35C
:1007800000802046BDE81040FFF762BD004870477A
:100790004800002001491820ABBEFEE726000200F9
:1007A000704710B5203AC0F00B80B1E81850A0E8AF
:1007B0001850B1E81850A0E81850203ABFF4F5AF2F
:1007C0005FEA027C24BFB1E81850A0E8185044BF8B
:1007D00018C918C0BDE810405FEA827C24BF51F8F8
:1007E000043B40F8043B08BF7047D20728BF31F8EC
:1007F000023B48BF11F8012B28BF20F8023B48BF3D
:1008000000F8012B704700007CB5FFF747FD6048FA
:10081000416801F00C025F49082A03D0042A17D16D
:100820005D4915E0026852025B4A58BF0A460168FA
:10083000022301F03F01B2FBF1F10268C2F388121A
:1008400051430268C2F3014203EB4202B1FBF2F1F1
:10085000524A534B11604068C0F30310185C21FAF0
:1008600000F010604F48016821F004010160116838
:100870004FF47A72B1FBF2F14A1E0021B1EB126F14
:1008800006D14260484AF02313708160072101605D
:10089000464C474DAC4202D201CC8047FAE745496D
:1008A00001F5705222F00300192806D3CB1CA0F1E9
:1008B000180423F003039C4203D244A001F0F8FE85
:1008C0001EE0C11A3C4C0025A1F118020C39A263AC
:1008D0004FF4F5529D60C3E9002140F8081C3749E8
:1008E0000246E36342F80C1DA16B226401220C3125
:1008F00040F8041C324833A102F0F5F9E06B606463
:1009000002F05EFA2C4D404E05F16400C5E9190075
:1009100000206880B0F5807F04D0311831504960E4
:100920000830F7E700203B494FF400720A23C5E97D
:10093000140005F15C00C5E917001420009033A0F5
:1009400002F0ADFA02F078FB334C34A201212046CC
:1009500002F02CF920201F21334A4FF48073CDE997
:1009600000103049204600F007FC204602F064FBEE
:10097000286D00F0E7FB06EBC00050F8080CA0F172
:10098000140108306965FFF7D6FC00207CBD00BF6C
:10099000043802400024F40000127A000000002015
:1009A0002C34000810E000E023ED00E0E4390008FA
:1009B000003A000878030020A8000020A01E0100D3
:1009C000E002002068656170000000006D656D2028
:1009D000696E69742C206572726F72206265676936
:1009E0006E206164647265737320307825782C20E2
:1009F000616E6420656E6420616464726573732047
:100A0000307825780A000000804000206D61696E12
:100A100000000000F91F0008000300207469646CE6
:100A200065000000652F000880410020FEE70000FF
:100A30000948016809050ED5D0F8841021F001019C
:100A4000C0F884104FF400618160D0F8841041F048
:100A50000101C0F88410704704600240016821F071
:100A6000010101600021016041608160C16001619C
:100A700021214161354988422FD03549884230D003
:100A80003449884231D03449884232D0334988428F
:100A900033D07349884233D08E49884233D03049AD
:100AA000884233D02F49884235D02F49884235D0EB
:100AB0002E49884236D02E49884237D02D49884267
:100AC0003AD02D4988423AD02C4988423AD02C4914
:100AD00088423AD12F483D2136E02A484FF03D5117
:100AE00032E02C484FF474612EE02A484FF4741120
:100AF0002AE028484FF0746126E02648244908E09F
:100B00002448224905E023481F4902E021484FF0CC
:100B10003D51416070471F483D210AE01D484FF498
:100B2000746106E01B484FF4741102E019484FF05D
:100B30007461C0F8001470471248154904E0114868
:100B4000124901E00F48104901607047B864024043
:100B500028600240406002405860024070600240DD
:100B6000B8600240106402402864024040640240C1
:100B7000586402407064024088640240A0640240ED
:100B8000106002400C64024000003D20400F002035
:100B90003D0000200860024070B50268124B01F170
:100BA0000C0670CE1A400B681A438B6922433243FD
:100BB0001A43CB691A430B6A1A434B6A1A438B6A6E
:100BC0001A434B6B1A438B6B1A430260CA6A436920
:100BD00023F007031A430B6B1A43426145604A68CE
:100BE00082608968C16070BD3F801CF0B0B590B074
:100BF00037481B4C00F0EBF82068C007FCD1002000
:100C00004FF48031354DCDE909014FF480610B90EF
:100C1000CDE90700CDE90C000E90CDE90501642176
:100C20000195CDE903010F49204602914FF0006183
:100C300000916946FFF7B0FF0B480F900FA800F036
:100C400093F8206840F001002060206840F0100018
:100C50002060288A40F040002882002010B0B0BDFB
:100C6000886002401401002010000101B0B590B06E
:100C70001748184C00F0ABF82068C007FCD10020E2
:100C80004FF48031154DCDE90A014FF480610C908D
:100C9000CDE90800CDE90D000F90CDE906016421F2
:100CA000029520460591402104910B4903914FF094
:100CB0000061019101A9FFF76FFF206820F001009A
:100CC0002060288A40F080002882002010B0B0BD4B
:100CD00030380240A0600240780100200444004007
:100CE00070472DE9F043D1F8008000234FF0010E4A
:100CF0004FF0030C0026102E08BFBDE8F0830EFA5B
:100D000006F918EA090F29D004680CFA03F5AC4378
:100D1000ED4304600C79076804FA03F23A43026079
:100D2000621E012A12D882682A4082604A798C7930
:100D300087689A403A438260426822EA0902426028
:100D400004FA06F2446892B222434260C2682A4022
:100D5000C260CA79C4689A402243C2600233013635
:100D6000C9E7FEE77047000070B5C2781149AAB123
:100D7000114A0723126845788678047823EA1222FC
:100D80000F23D340C2F10402D2B2334005FA02F27B
:100D90001A430B19120183F8002300E08031007818
:100DA000012300F01F02C0F3421003FA02F241F8DF
:100DB000202070BD00E100E00CED00E0016821F4AE
:100DC00070610160016841F4E06101607047016891
:100DD00041F4001101602046FFF740BE08210822BF
:100DE0003346CDE9005B01F063BC08F1FF008542AA
:100DF0007047304601F05CBC044600202072FFF7CB
:100E00004DBA2046FFF74EBA08210822334601F0BA
:100E10004FBC009502F043B82DE9FE43FFF73EFAC0
:100E2000854D297801312970FFF73CFA696B686DAF
:100E300001316963016C0139016425D1C16B016421
:100E4000FFF72CFA696D91F8342002F00F02012AA5
:100E500018D10A4652F8143F5468A34212D05C607D
:100E60008C698A61236091F835302F4C04EBC30301
:100E70005C682260C1E905345A60FFF713FA01F09B
:100E8000BBFE01E0FFF70EFA01AE6F6BCDE9016624
:100E9000FFF704FA804625488146284650F8644FFB
:100EA000844234D060694946381A48452FD8D4E97D
:100EB000001048606068016014F80B0C2460810722
:100EC0005CBF00F0FE0004F80B0C01984460C4E91C
:100ED0000006D4E902100194884701986F6BB04274
:100EE000DBD0D4E9001048606068016014F80B1C86
:100EF000C4E900448807D0D5C807CED0A4F11400B7
:100F000001F0FE0104F80B1C02F0E0F8C5E74046D2
:100F1000FFF7C8F9FFF7C2F9297801392970BDE850
:100F2000FE43FFF7BFB900BF80400020FEFFFF7FF8
:100F30001CB53348344CD0F8801041F47001C0F82F
:100F4000801030490A6842F001020A6000228A607B
:100F50000B6823400B602D4B4B600B6823F4802300
:100F60000B60CA60019200920A6842F480320A6003
:100F70000A6802F400320092019A01320192009A4A
:100F80001AB9019AB2F5A04FF2D10A68920354BF80
:100F9000002201220092009A012A2CD10A6C42F010
:100FA00080520A641A4A136843F4404313608A6803
:100FB0008A608A6842F400428A608A6842F4A052D9
:100FC0008A60144A4A600A6842F080720A600A68BD
:100FD0009201FCD540F20572C1F800248A6822F023
:100FE00003028A608A6842F002028A608A6802F01C
:100FF0000C02082AFAD14FF0006101601CBD00BF4D
:1010000008ED00E000380240FFFFF6FE103000243B
:101010000070004008544007064882890188D206C3
:1010200007D511F0100104D08088AB48406A01F068
:1010300069BE704700440040A8000020F0B5CA888F
:10104000038A23F440531A434EF6F3130282828933
:101050001A408B881A430B891A434B891A438281A1
:101060008A89838A23F440731A43304B82825A68F8
:1010700002F00C042E4A082C03D0042C17D12D4A60
:1010800015E01C6864022B4C58BF14461A680225F0
:1010900002F03F02B4FBF2F21C68C4F3881462430E
:1010A0001C68C4F3014405EB4404B2FBF4F25C6831
:1010B000214E224FC4F30314345D5D68C5F38225CD
:1010C000755D5B68C3F34233F35C40F48066BE42F7
:1010D00018BF2B46B0F90C500126B5F1FF3FC8BF31
:1010E00002260968E2406FF063040325DA40192301
:1010F000B1405A43B2FBF1F16422B1FBF2F303FBBE
:101100000411B0F90C40B4F1FF3FC8BF0425A94059
:101110003231B1FBF2F10722B4F1FF3FC8BF0F2219
:10112000114041EA03110181F0BD00BF04380240C3
:101130000024F40000127A003C340008001401403E
:10114000FEE7000018B1C1B219B101200EE0002085
:10115000704710F47F4102D0090A092006E010F41C
:101160007F0107BF010E1920090C1120014A515CB3
:10117000084470474C340008F8B504460020C4E920
:10118000081004F11400C4E90A232321C4E905006E
:1011900010461A4601F08AFCD4E90A12D4E908077D
:1011A000DDE906CE6FF0430511441B4A21F0070626
:1011B000A6F1440115B172510435FBE7174B002528
:1011C0004FF0807246E9020246E9087546E9065585
:1011D00004F14400224646E90453E1610A2146F83D
:1011E000445C84F836C0C4E90E5EC4F840E084F87C
:1011F00035C0C4E91C5584F83450256301F0D6FC91
:1012000004F15801064884F84D50E566C4E916110A
:1012100004F1600131C1F8BDEFBEADDEDD2E000886
:10122000A730000880B500F055FC002080BD80B5D7
:1012300000F014FD002080BD2748006B90F82100CD
:10124000800703D4074800210170704710B5054C92
:1012500000202071044820602046FFF73DF93E2120
:10126000215210BDDC0100206D7368207CB51A4E40
:101270001A481B49C6E90A10782001F08FFB08B311
:1012800000217822002401F011FC30630A20174964
:101290004FF480621523009012A001F000FE054675
:1012A000306B13A1002201F01EFD306B90F821106D
:1012B00041F0020180F821105DB1284601F0BCFE2A
:1012C000002406E0002030630BA001F0F1F94FF09C
:1012D000FF3420467CBD00BFA8000020CC3A0008A7
:1012E0000C3A0008747368656C6C000011130008F8
:1012F00073687278000000006E6F206D656D6F720C
:101300007920666F72207368656C6C0A00000000BB
:1013100088B0DFF8CC84D8F8300090F8211041F084
:10132000010180F82110FFF787FFDFF8B80401F012
:10133000BFF9CC4F4FF6BF79DFF8B4644FF0000A25
:10134000388880060DD43888000748BFA7F8009079
:101350000A2001F02DFED8F830B0FF250BF1200057
:101360000AE0D8F830B0B988CDB20BF120001B2DBF
:1013700002D101210170E3E79BF82020A5F10801CB
:10138000022A06D0012A27D15B2D23D10221017028
:10139000D6E7052980F800A037D9A5F14100022839
:1013A000CED3002DCCD0432D00F01281FF2DC7D01D
:1013B0007F2D4FD0442D1FD1BBF874000028BFD023
:1013C000FFF717FDD8F83000B0F874100139A0F815
:1013D0007410B5E780F800A0052907D8DFE811F000
:1013E0003A0097011E000C000C001E00002DA7D033
:1013F0007F2D2FD0FF2DA3D0BBF872005028C0F056
:101400007B800020ABF87200A2E0DFE811F023003F
:1014100080010700060006000700EDE79BF82100A9
:10142000C00705D0DFF8CC0301F042F9D8F830B09E
:10143000BBF872700BF123000BF12205002F00F0B6
:10144000BA802978202901D009293AD10130013FF9
:101450000135F3E7BBF8741000293FF471AFBBF816
:101460007220481EABF87400531E82B2ABF8723083
:101470009BB2934234D90BF122049A1A14FA80F0E9
:10148000214401F0FDFAD8F83000B0F8721000F1F4
:10149000220202F801A0B0F8740011180FF29C307B
:1014A00001F006F9D8F83000B0F87440B0F87200D6
:1014B00084423FF645AFFFF79CFCD8F8300001347A
:1014C000F4E74FF00009C9B209295ED020295CD0A9
:1014D0004F4500F0928010F8011B09F10109F2E775
:1014E0000FF2543001F0E4F8D8F83000B0F8721080
:1014F000084480F822A023E7BBF87410814227D269
:10150000421A594401F12300223101F0B9FAD8F806
:1015100030B0BBF87400584480F822509BF821008A
:10152000C00709D0BBF87400584400F12201C84834
:1015300001F0BEF8D8F830B0BBF87440BBF87200C8
:10154000844212D2FFF755FCD8F830B00134F5E7E9
:10155000584480F822509BF82100C00705D0A348CA
:10156000294601F0A5F8D8F830B0BBF87200BBF8F6
:10157000741001300131ABF8720080B2ABF8741016
:10158000502828BFCBF872A0DAE6B9F1000F35D1A8
:10159000974E28464FF6BF794FF0000A017841F088
:1015A0002001202901D00130F8E780F800A09CA09C
:1015B000294601F07DF8FFF73FFE8A4801F078F8F0
:1015C000D8F8300054212230FFF769F8864FB7E68B
:1015D000BBF87400BBF872108842BFF4B1AE584437
:1015E00090F82210814801F063F8D8F83000B0F884
:1015F00074100131A0F87410A2E6B946D8E90A6B5C
:1016000009F1060A5E45C3D234687B4906222046AA
:10161000FEF781FF40B9A01D29464A46FEF77BFF31
:1016200010B914F80A0008B10C36EBE7D6F80890A8
:10163000B9F1000FACD068462021FFF752F8002224
:1016400028460024BA4248D200210378202B01D03A
:10165000092B09D1BA4203D200F8011B0132F4E789
:10166000394602E0001001401146082C37D2B94239
:1016700033D2222B17D101306A464FF0000C42F8CA
:10168000240003784A1C222B1CD0BA421AD25C2BAD
:1016900006D1034613F8016F222E04BF8A1C184698
:1016A00001301146EDE76A46002342F82400013478
:1016B000C65CCA18092E0CD0202E0AD0BA421DD200
:1016C0000133F5E70134BA4218D200F801CB8A1C85
:1016D000B8E71844BA42B5D310E07CB958E747A040
:1016E00000F0E6FF25466F462DB102CF4BA000F07B
:1016F000DFFF013DF8E73F4800F0DAFF204669468A
:10170000C8473B4E4FF6BF794FF0000A53E700241D
:10171000BBF87400844205D2FFF76BFBD8F830B0F9
:101720000134F5E7334800F0C3FF1BF8220F00280F
:1017300041D0D8E90A694FF0000A00274E452FD260
:1017400034682D4906222046FEF7E5FE30BB584698
:10175000FEF7C2FEA51D024658462946FEF7DBFEEF
:10176000E0B927B92846FEF7B7FE0746AA4600208B
:101770001AF800100AEB000429B12A5C1AB1914250
:1017800001D10130F4E72FA0294600F091FFA4EB2E
:101790000A00B842B8BF0746D8F82C900C36CDE7FF
:1017A000BAF1000F4FF6BF7907D0584651463A4676
:1017B00001F05EFB01E000F02FFCFFF73DFD094961
:1017C00021A05A4600F074FFD8F8304004F12200FE
:1017D000FEF782FE044FA4F87400A4F87200ABE593
:1017E000A8000020DC01002000100140C5390008DD
:1017F00090370008E3380008BE390008546F6F20A6
:101800006D616E7920617267732021205765206FAA
:101810006E6C79205573653A0A000000257320002C
:1018200025733A20636F6D6D616E64206E6F742056
:10183000666F756E642E0A00082008000825732064
:101840002008000025730A0025732573000000009E
:10185000DA39000880B502A000F02AFF002080BD20
:1018600048656C6C6F2052542D5468726561642118
:101870000A000000E0B51448016841F0020101606F
:10188000012069468DF807004FF44070ADF8040060
:1018900000900248FFF725FA00208CBD00040240AA
:1018A000BCB509480A4C4FF4C065016841F02001FD
:1018B000016006486946009501902046FFF711FA3D
:1018C0000020A561BCBD00BF30380240010300010B
:1018D000001402402DE9F8430FA000F0E9FEDFF804
:1018E0004C8013A40FF24C09D8E90A75AF420FD20D
:1018F0003E68214602223046FEF70DFE30B17A687E
:101900004846314600F0D4FED8F82C500C37EDE7AD
:101910000020BDE8F88300BF2D2D46756E63746905
:101920006F6E204C6973743A0A000000A800002012
:101930005F5F0000252D313673202D2D2025730A81
:1019400000000000F8B50646C86800240C6128B302
:10195000087A0D4610B334462F68002E08BF3C4667
:10196000FEF79CFC36B116F8042C297A02F07F02AF
:101970008A4210D1696800262468BC4206D0EA6811
:1019800041F8264001369642F6D100E00024FEF7E9
:1019900089FC2E6102E0FEF785FC00242046F8BD9C
:1019A0002DE9F04F93B00520052401F0EBF8043049
:1019B0008DF84040002408210DF118092FA20E9047
:1019C00025A012941191CDF83C9000F071FE00F02A
:1019D00061FB2CA000F06CFE20460EA9FFF7B2FFC1
:1019E000129F9DF840A04FF0000804900597B8455D
:1019F0002ADA59F82840FEF751FC14F8045CFEF787
:101A000051FC05F07F0050451BD1A4F10C0654F8A1
:101A1000087FB4F80CB0E589204600F0B5FFA74276
:101A20000AD002901EA0FFF7D9F9204601F0B4FBBE
:101A3000214800F03DFE03E0029020A0FFF7CEF920
:101A4000059F08F10108D2E7049C002CC4D10020B6
:101A500013B0BDE8F08F00BF252D2A2E7320656ED0
:101A60007472792073697A652073757370656E641A
:101A7000207468726561640A000000006D61696C21
:101A8000626F7800202D2D2D2D20202D2D2D2D2025
:101A90002D2D2D2D2D2D2D2D2D2D2D2D2D2D0A00C6
:101AA000252D2A2E2A732025303464202025303419
:101AB000642025643A000000E3380008252D2A2E12
:101AC0002A73202530346420202530346420256496
:101AD0000A000000B0B5074C0C4D07A0A16BA84749
:101AE000A16C0BA0A847E16C0EA02A46BDE8B0404F
:101AF000104700BFA8000020746F74616C206D65F2
:101B00006D6F72793A2025640A000000B126000842
:101B100075736564206D656D6F7279203A20256458
:101B20000A0000006D6178696D756D20616C6C6FE5
:101B30006361746564206D656D6F72793A20256408
:101B40000A0000002DE9F04F91B00220022401F0BC
:101B500019F88DF838400024082104302DA2109483
:101B60000F9104AF0C9024A00D9700F0A1FD00F0A0
:101B700091FA2BA000F09CFD20460CA9FFF7E2FE95
:101B80009DF83890DDF840A04FF000080390D04554
:101B90002ADA57F82840FEF781FB14F8046CFEF7A8
:101BA00081FB06F07F0048451BD1A4F10C0654F8D8
:101BB000085FB4F808B0204600F0E6FEA5420BD05E
:101BC000CDE900B01CA0FFF71FF9204601F0E4FAB0
:101BD0001D4800F06DFD04E0CDE900B01BA0FFF74B
:101BE00013F908F10108D2E7039C002CC4D10020AE
:101BF00011B0BDE8F08F00BF252D2A2E732076206E
:101C0000202073757370656E6420746872656164FA
:101C10000A00000073656D6170686F7265000000F6
:101C2000202D2D2D202D2D2D2D2D2D2D2D2D2D2DFE
:101C30002D2D2D0A00000000252D2A2E2A73202587
:101C40003033642025643A00E3380008252D2A2E1D
:101C50002A7320253033642025640A002DE9F04FD3
:101C600091B00120012400F08DFF8DF83840002450
:101C70000821043032A210940F9104AD0C902F482B
:101C80000D9500F015FD00F005FA2FA000F010FDF5
:101C90000FF2141B20460CA9FFF754FE9DF8388064
:101CA000DDF84090002603904E453FDA55F826A017
:101CB000FEF7F4FA1AF8041C01F07F01414531D116
:101CC000FEF7F0FA9AF82900AAF10C03082108227D
:101CD00000902DA000F0ECFC9AF8280000F00F0016
:101CE000042804D82BA151F8200000F0E1FCDAF818
:101CF0001C00431E13F8011F2329FBD0DAE9082436
:101D0000DAF83470DAF81010CDE900741418C01A3B
:101D100064231044611A5843B0FBF2F3584600F0B4
:101D2000C7FC01E0FEF7BEFA0136BDE7039C002CBC
:101D3000B0D1002011B0BDE8F08F00BF46380008D8
:101D40007468726561640000202D2D2D20202D2DDA
:101D50002D2D2D2D2D202D2D2D2D2D2D2D2D2D2DC0
:101D6000202D2D2D2D2D2D2D2D2D2D20202D2D2DCA
:101D70002D2D2D20202D2D2D2D2D2D2D2D2D2D20BA
:101D80002D2D2D0A00000000252D2A2E2A73202536
:101D900033642000E5380008F7380008C839000827
:101DA000D1390008EE380008203078253038782006
:101DB00030782530387820202020253032642525C1
:101DC00020202030782530387820253033640A00F0
:101DD0002DE9F04F91B00A200A2400F0D3FE00252F
:101DE000082104308DF8384031A210950F9104ACD1
:101DF0000C9025A00D9400F05BFC00F04BF92EA098
:101E000000F056FCDFF814A13BA60FF2041B284695
:101E10000CA9FFF797FD9DF83850DDF840800027AA
:101E20000390474523DA54F82790FEF737FA19F85C
:101E3000041C01F07F01A94215D1FEF733FAD9E95C
:101E40000601A9F10C030822CDE900013046082162
:101E500000F02EFC19F8030CC0070CBF5046584682
:101E600000F026FC01E0FEF71DFA0137D9E7039DDB
:101E7000002DCCD11948416B19A000F019FC0020AD
:101E800011B0BDE8F08F00BF252D2A2E73202070E1
:101E90006572696F64696320202074696D656F7570
:101EA0007420202020202020666C61670A0000003A
:101EB00074696D6572000000202D2D2D2D2D2D2DA6
:101EC0002D2D2D202D2D2D2D2D2D2D2D2D2D202D5C
:101ED0002D2D2D2D2D2D2D2D2D2D0A00A80000206E
:101EE00063757272656E74207469636B3A3078251D
:101EF0003038780A00000000252D2A2E2A73203061
:101F00007825303878203078253038782000000067
:101F10006163746976617465640A0000243800089E
:101F2000BCB5224D1EA0A847214C606021A0A84747
:101F3000A06023A0A84727496062052523A04FF48D
:101F400000720123FEF765FFE06028B301F074F82A
:101F5000234921A04FF400720223FEF75AFF2061AB
:101F6000D0B101F069F8204905251EA04FF4007298
:101F70000323FEF74EFF606170B101F05DF81D496B
:101F80001AA04FF400720023FEF743FFA06118B1BE
:101F900001F052F80020BCBD4FF0FF30BCBD00BFC7
:101FA00073656D5F6B65793100000000C92C000816
:101FB000A800002073656D5F6B657932000000003A
:101FC00073656D5F75617274320000004C45443179
:101FD00000000000ED3100084C45443200000000D4
:101FE000053200084B4559001D3200085541525436
:101FF0003200000079320008B0B5054C054DAC4206
:1020000002D201CC8047FAE7BDE8B040FFF788BFB5
:10201000003A0008083A00082DE9F84310A000F043
:1020200047FBDFF85890174C0FF25C08D9E90A57C4
:10203000BD420FD22E68214606223046FEF76BFACB
:1020400030B96A68B11D404600F032FBD9F82C70F7
:102050000C35EDE70A4800F02BFB0020BDE8F883C3
:1020600052542D546872656164207368656C6C20ED
:10207000636F6D6D616E64733A0A0000A800002002
:10208000E3380008BE390008252D313673202D2095
:1020900025730A00B0B56FF0070504A425B12046EA
:1020A00000F006FB0135F9E7B0BD00BF2D000000D0
:1020B0002DE9F04F88B0129D0FF270184FF0300AE2
:1020C000DDF844B08C466C0653A458BFA046EC061D
:1020D00048BF25F00105EC0708BF4FF0200AAC0708
:1020E00004D4002101260191009117E0BCF1FF3FCB
:1020F00005DD6C070DD42C07F3D520210AE0012162
:10210000CDE90235CCF1000C002301912D21009185
:102110000AE02B210091002601210191BCF1000F62
:102120001FD002933346039500270A2504ACBCF167
:10213000000F12D0BCFBF5F10CF00F0E0A2A01EBD8
:10214000810908BFACEB490E18F80E60E65518BFC0
:102150004FEA1C1101378C46E9E71E46039D029B9E
:1021600003E0302101278DF810105F455A46C8BFA3
:102170003A46991A15F0110F12D100230029C8BF51
:102180000123019C23402024C91A2D4BFF33012930
:1021900005DB984238BF047001390130F7E7013997
:1021A0003EB9274BFF3398423CBF009B0370013080
:1021B0000139EB060BD4224BFF33012906DB984291
:1021C00038BF80F800A001390130F6E701391C4B17
:1021D0003024FF33974205DA984238BF0470013A41
:1021E0000130F7E704AABBF1000F10D0002F0EDD7D
:1021F000984203D2D41914F8014C0470013F013005
:10220000F1E798423CBF20220270013901300129D8
:10221000F7DA08B0BDE8F08F303132333435363775
:102220003839616263646566000000003031323322
:1022300034353637383941424344454600000000C2
:10224000803F002080B5FEF729F8F9494A8801321D
:102250004A80BDE88040FEF725B800BF10B5FEF704
:102260001DF8F34C61880139618009B2002903DD52
:10227000BDE81040FEF716B800216180FEF712F8A5
:10228000606D18B1BDE8104000F0B6BC10BD00BFD5
:10229000F8B5002857D02C4E0446F06BA04252D817
:1022A000306CA0424FD9294800F050FD34F80A0C98
:1022B000A4F10C0518B12888B0F5F55F0AD024A068
:1022C00000F0F6F934F80C3C34F80A2C27A0294623
:1022D00000F0EEF94FF4F55044F80C0C716C8D429F
:1022E0003CBF75642946F06B54F808CCB76C0CEB16
:1022F0000003EA1A3A44B26410D05A8872B9326CB8
:1023000093420BD0994204BF75642946D3F804C0A8
:102310002A1A44F808CC5B6803449A6054F8043CD9
:10232000C718AF420AD07A8842B9A94208BF776479
:10233000C7F804C054F8081C084483600348BDE88B
:10234000F84000F0DFBCF8BDA8000020E00200204B
:10235000746F20667265652061206261642064612B
:10236000746120626C6F636B3A0A00006D656D3AB0
:10237000203078253038782C207573656420666CA1
:1023800061673A2025642C206D6167696320636F63
:1023900064653A203078253034780A000446416C70
:1023A0007448754DA847A16A7448A847E16A744803
:1023B000A847216B7348A847616B7348A847A16879
:1023C0007248A847E16872A0A847216974A0A8478D
:1023D000616977A0A847A16979A0A847E1697CA0B5
:1023E000A847216A7EA0A847616A81A0A847A16B7F
:1023F00083A0A847E16B86A0A847216C88A0A847C6
:102400002078400703D48C4800F052F906E0884851
:10241000416D884800F04CF9FFF720FC2078C00699
:1024200002D4864800F044F9854C6068800702D5E4
:10243000844800F03DF96068400040F19280607887
:1024400088B3814800F034F96178804800F030F9B1
:102450006078C00702D07E4800F02AF960788007D3
:1024600002D57C4800F024F96078400702D57A480C
:1024700000F01EF96078000702D5784800F018F9DE
:102480006078C00602D576A000F012F994F9010038
:10249000B0F1FF3F03DD754800F00AF903E0216960
:1024A000714800F005F9207858B3714800F000F940
:1024B0002178704800F0FCF82078C00702D06E4800
:1024C00000F0F6F82078800702D56C4800F0F0F8AC
:1024D0002078000702D56A4800F0EAF82078C006A4
:1024E00002D5684800F0E4F894F90000B0F1FF3F2D
:1024F00003DD5E4800F0DCF803E0E168624800F0CC
:10250000D7F8608868B3614800F0D2F86188604805
:1025100000F0CEF86088C00702D05E4800F0C8F82E
:102520006088800702D55C4800F0C2F860884007E8
:1025300002D55A4800F0BCF86088000702D5584818
:1025400000F0B6F86088C00502D5564800F0B0F833
:102550006088800502D5544800F0AAF8434800F08E
:10256000A7F86068B0F1FF3F02DC504800F0A0F827
:10257000FEE700BFD8380008B126000897380008E9
:10258000A4380008B1380008BE380008CB3800086D
:102590007230353A203078253038780A0000000053
:1025A0007230363A203078253038780A0000000042
:1025B0007230373A203078253038780A0000000031
:1025C0007230383A203078253038780A0000000020
:1025D0007230393A203078253038780A000000000F
:1025E0007231303A203078253038780A0000000007
:1025F0007231313A203078253038780A00000000F6
:102600007231323A203078253038780A00000000E4
:10261000206C723A203078253038780A00000000AB
:102620002070633A203078253038780A00000000A6
:10263000A8000020AC37000892370008C93700080E
:1026400028ED00E031380008F83700087739000835
:102650006239000857390008553900084B3900081D
:1026600053544B455252200004380008E338000808
:10267000D73700088D390008263900081C390008B2
:102680004A3900084139000814380008EA370008C0
:10269000A33900086B390008123900080039000816
:1026A0003B39000807390008303900088A3800082B
:1026B00083B02DE9FF4FDFF8C0820DAC0DF1340B74
:1026C0004FF0200A0EC4CDF808B0454601780390BB
:1026D000252908D0002900F02B81FEF786FB38BFA2
:1026E000297001350BE1411C4FF00009084610F834
:1026F0000129202A09D0232A09D0302A09D02D2ADD
:1027000009D02B2A0CD1042006E0082004E0202068
:1027100002E0012000E0102049EA00090131E5E76C
:10272000A2F130030391092B05D803A800F04CFD5A
:10273000039906460EE02A2A0AD1811C03915BF810
:10274000046BB6F1FF3FDCBF49F01009764201E0AF
:102750004FF0FF360A782E2A0BD14A1C0392487894
:10276000A0F13003092B07D803A800F02DFD039931
:102770000CE04FF0FF3C0CE02A2804D10231039119
:102780005BF8040B02E04FF0FF3011460A7820EAB4
:10279000E07C42F004036C2B05D14B1C03934F7873
:1027A0001946134601E000231746A7F16F04092CD0
:1027B0000BD9252F60D0582F43D0692F18BF642F15
:1027C0000DD149F002090A223EE00A22DFE804F0B6
:1027D00005185A5A2C5A3C5A5A3B082234E0632FA7
:1027E00050D15FEAC96000F18E80022EC0F28A806B
:1027F000FEF7FBFA38BF85F800A0013E0135F4E78B
:10280000701C5BF8041BB0FA80F04FEA501040EAED
:102810000900C0B2CDE900C008BF08262846102232
:102820003346FFF745FC69E05BF8041B53A0002921
:1028300008BF014600239E4233D0C85C90B30133E9
:10284000F9E749F040091022682B03D0DBF80010AB
:102850006C2B05E0BBF800105FEA897048BF09B235
:102860005FFA89F03346CDE900C02846FFF720FC27
:1028700005460BF1040B42E0FEF7B7FA3CBF2520FA
:1028800028702EE7FEF7B1FA03D2252129700399AB
:102890000F786A1C002F47D0824238BF177002356C
:1028A0002DE0334663451A46C8BF6246BCF1000FAF
:1028B000D8BF1A465FEAC9600AD4B24207DAFEF707
:1028C00094FA38BF85F800A0013E0135F5E7013ED6
:1028D0000023E81893420FDA08F1FF04A0423CBF3E
:1028E000CC5C04700133F4E708F1FF01884238BF83
:1028F00080F800A0013E0130B242F5DB05460398A6
:102900000130E3E6013EFEF770FA3CBFDBF8001051
:1029100029700BF1040B0135022EF0DB854238BF24
:1029200085F800A0013EF6E7481E15460390E6E74D
:10293000114C04F1FF00854228BF04F1FE05002080
:102940002870FFF77FFC0F480D2122780A2A01D05A
:102950002AB90AE0818002881206FCD5227882809A
:1029600002881206FCD50134EFE7FFF777FCBDE8DB
:10297000FF4F03B0704700BF803F0020284E554CEA
:102980004C2900000010014001464FF0FF300A467C
:10299000126801308A42FBD17047000078B32DE9FC
:1029A000F041DFF83C89033020F00306D8F8380006
:1029B000864229D8314800F0C9F90C2E98BF0C2660
:1029C000D8E90EC0D8F844E0ACEB0602AEEB000745
:1029D000974216D2C5193B4669886F680029F7D11E
:1029E00003F10C04391BB142F2D306F118029142F3
:1029F0000DD201216980F91AD8E912231CE00020C8
:102A000070471E4800F07EF90020BDE8F08106F115
:102A10000C0226444FF4F551815181194F606E60CC
:102A20008B60012349686B800CF10C0399421CBF39
:102A300001448E60D8E912130A444FF4F5519342D1
:102A4000C8F8482038BFC8F84C202980754506D002
:102A50000A4800F057F905F10C00BDE8F081D8F8FC
:102A60004020BEF802100029F2D09645F0D0DEF8E2
:102A7000041000EB010EC8F844E0F2E7E002002089
:102A800010B5814209D28B18834206D90139431E01
:102A90005AB18C5C9C54013AFAE703462AB111F80A
:102AA000014B013A03F8014BF8E710BD10B5042AB9
:102AB00015D310F0030312D1CBB24FF001345C43B5
:102AC00003460F2A08D9C3E90044C3E90244103A77
:102AD0001033F6E710C3043A042AFBD204E003469D
:102AE00002E003F8011B013A002AFAD110BD2DE9DA
:102AF000F0410E46074600F045F80546C068FFF76E
:102B00004DFF0446C8B1EA68204600214FF0000896
:102B1000FFF7CCFF3146082284F80980277200F0C5
:102B2000A7F9FDF7BBFB55F8041F224642F80C1F1E
:102B30004A602A605560FDF7B5FB2046BDE8F0818C
:102B400010B5FEF759F92246216952F80C3F596039
:102B5000216922610B601260FDF7A4FB2046BDE8ED
:102B60001040FFF795BB10B5FEF746F954F80C1F5F
:102B700062684A6062681160C4E90044BDE81040C0
:102B8000FDF790BB08496FF04F0212F1100304BF2C
:102B9000002070470A4492F8502082421A46F4D12D
:102BA000C8184030704700BF04000020F8B5044644
:102BB000084615460E46FFF7E5FF0746FFF742FBBE
:102BC000043738460068B842FCD1FFF747FB46F0AF
:102BD0008000294608222072204600F049F9FDF7BE
:102BE0005DFB396844F80C1F4C603C606760BDE8D1
:102BF000F840FDF757BB0000B0B5FDF74FFBEB4DBC
:102C00000446688820B12046BDE8B040FDF74ABBC5
:102C1000286DFEF797FA2B496A6D01EBC00050F85A
:102C2000080CA0F114019142EDD0696500F1080192
:102C300002F11C002A7812B1FDF737FBE3E7FDF73C
:102C400034FBE0E7F8B50446FDF728FB94F835209F
:102C50001C4BE74E94F8341004F1140503EBC20248
:102C6000376D01F0F0015368013184F83410A3612D
:102C70001D60A36B556062613B433365BDE8F8405E
:102C8000FDF710BB10B50446FDF708FB214651F8CF
:102C9000142F4B6853604B681A60C1E9001191F81A
:102CA0002110084A02EBC10352F83110994205D1B4
:102CB000EC4AA16B136D23EA01011165BDE81040D8
:102CC000FDF7F0BA8040002080B501460220FFF7F2
:102CD0000EFF38B1002181830121417200F11401FE
:102CE000C0E9051180BDB0B514460A46022105466B
:102CF000FFF75CFF05F11400AC83C5E90500002077
:102D00006872B0BDF8B50546FDF7C8FA2E46044610
:102D100056F8147FB74204D0A7F1140000F06AF906
:102D20000BE0A88B4FF6FF71884204D12046BDE826
:102D3000F840FDF7B7BA0130A883FEF762F8B74252
:102D400008BFF8BDBDE8F840FFF756BFF8B5054627
:102D5000FDF7A4FA0446A88B30B10138A8832046B9
:102D6000BDE8F840FDF79EBAF9486F7A466D00203D
:102D70003063304600F078F905F114009FB1012F5F
:102D800018D10146096881420DD091F8212096F8AA
:102D900035309342F6D2486806F114020260C6E963
:102DA00005104A6006E0A96906F114020A60C6E946
:102DB0000501AA61FEF725F8BDE8F840FFF71CBF42
:102DC0001CB50B4C07A0A0470AA0A04712A00321E6
:102DD00001220523009013A0A0471AA02146BDE8B8
:102DE0001C4008470A205C207C202F0A00000000BD
:102DF000B12600082D205254202D202020202054C0
:102E00006872656164204F7065726174696E6720D5
:102E100053797374656D0A004D617220323520322A
:102E200030323400202F207C205C202020202025E0
:102E3000642E25642E2564206275696C64202573D8
:102E40000A0000002032303036202D20323032305F
:102E500020436F7079726967687420627920727498
:102E60002D746872656164207465616D0A000000EC
:102E70006AB1B0B5034604460D7804F8015B3DB174
:102E8000013A01F101012346F6D1BDE8B040704797
:102E9000012100248A42F8D05C540131FAE7FEB5E2
:102EA0000E46014601201F461546FFF720FE88B159
:102EB00004462846FFF772FD48B10246089831469D
:102EC0002B46CDE900702046FEF756F903E0204678
:102ED000FFF736FE00242046FEBD0000F8B5E54FA2
:102EE0007D6DFDF7DBF90446FDF7D8F9296F06463D
:102EF00009B1284688473046FDF7D4F92846FFF740
:102F0000C1FE042085F83400FDF7C8F92E4656F8B6
:102F1000581F72684A607268116016F80B1CC6E987
:102F2000006601F0FE0106F80B1CFDF7BBF9A6F1E7
:102F30001400FFF718FE16F9500CB0F1FF3F07DD43
:102F400057F85C0F45F8140F45603D606F6002E074
:102F50002846FFF708FEFFF74FFE2046BDE8F84081
:102F6000FDF7A0B9DE4D0020042818D1FDF796F931
:102F70000446284650F85C6F864212D0D6E900120B
:102F800070694A6072681160C6E90066FFF780F9EF
:102F9000A6F11400FFF7D4FDFDF733FFE6E701309B
:102FA000E2E7FDF72EFF0020DEE700BFA8000020CB
:102FB00070B50546FDF772F90646C948446D2046CE
:102FC00000F052F845EAE575FDF768F9A566FDF7EA
:102FD00069F904F1440000F079F83046FDF762F930
:102FE000FFF70AFE206B023004BF0020206370BD93
:102FF000A8000020B0B5044690F8340000F00F009F
:10300000022818BFB0BDFDF749F921460546A06961
:1030100051F8142F5060A069A161026004F14400CE
:10302000096000F097F82846FDF73CF92046BDE816
:10303000B040FFF707BE000080B50221012280F8F2
:10304000341090F8361080F8351002FA01F18163DF
:10305000FFF7D0FFA248406D18B1BDE88040FFF7F0
:10306000CBBD80BDA8000020B0B5044690F8340068
:1030700000F00F00012818BFB0BDFDF70FF905469D
:103080002046FFF7FFFD94F8340000F0F000023016
:1030900084F8340004F1440000F05CF82846BDE8F0
:1030A000B040FDF7FFB880B50246816952F8143F81
:1030B0005960816982610B606FF0010112600163E8
:1030C000FFF7C0FDBDE88040FFF796BD2DE9F04158
:1030D0008046FDF7E3F84146DFF804E251F8142F8B
:1030E0000EF164074B6811F80BCC53604B681A6003
:1030F000DEF834200B6909609D1801226FF000434F
:103100004D61DEF86840D2070ED0A74209D03E4696
:103110003F687A69521BF8D09A42F6D200223746AD
:10312000F1E700222746EEE73A68C8F8142051601C
:103130004CF001023960C8F8187088F80920DEF8F0
:1031400058200132CEF85820BDE8F041FDF7AAB86A
:10315000A800002010B50446407AC00708BF10BD83
:10316000FDF79CF854F8141F62684A6062681160A9
:1031700014F80B1CC4E9004401F0FE0104F80B1C18
:10318000BDE81040FDF78EB8002070470020704762
:103190000020704700207047F8B5094D044609A685
:1031A00007463F68A74208BFF8BDA7F114012846AB
:1031B000FFF77EFA3868A042F3D0FDF71AFEF0E779
:1031C000DA3900082F000000026800211378303B34
:1031D000092B84BF08467047531C01EB8101036033
:1031E000127802EB41011A463039EFE73C4C044DAE
:1031F0006068FFF7ABFDE0692860C043E061F7E776
:10320000A4824242364C044DA068FFF79FFD206A1D
:103210002860C0432062F7E7A8824242144C304D38
:10322000206828B1606898B13220FFF7C1FEF7E747
:103230001420FFF7BDFE20680028F1D16868FFF771
:1032400061FD20680028EBD1C820FFF7B1FEF8E748
:103250001420FFF7ADFE60680028E1D1A868FFF7F1
:1032600051FD60680028DBD1C820FFF7A1FEF8E718
:1032700020824042A800002084B00020174DDFF8D3
:103280006090DFF868A00FF25C084FF40016ADF80C
:103290000C00CDE9010001ACD9F82400FFF756FD80
:1032A000D5F88000414682B22046FDF791F82046CD
:1032B000FDF712F987B2504621463A46FDF771FAFA
:1032C000D5F89400C007FBD1C5F898702E60D5F8EA
:1032D000940040F00100C5F89400DDE70C60024066
:1032E000A800002025640D0A0000000078010020DD
:1032F00010B586B019481B4C016841F0010101600E
:10330000416941F0100141611548016821F0F00167
:103310000160016841F070010160FDF74FFD374821
:1033200005904FF4C060049004F5704004A9FDF7C7
:10333000D8FC00206946ADF80C0001904FF4E13054
:1033400000904FF4402002902046FDF777FEA089C0
:1033500040F40050A081002006B010BD303802407B
:10336000240002400010014010B588B02148244CD0
:10337000016841F400310160016821F4003101600D
:10338000016941F001010161016A41F4003101620A
:103390001948FDF713FD016821F4704101600168CF
:1033A00041F4E0410160154807900C20069004F5B7
:1033B000DE3006A9FDF795FC0020ADF8140003905F
:1033C0004FF4E13002904FF44020049002A92046CF
:1033D000FDF734FE0B48019001A8FDF7C5FCA0895C
:1033E00040F40050A081E06840F01000E060002050
:1033F00008B010BD20380240200002400202000147
:10340000004400402601000180B5FFF7D9FC0020F0
:1034100080BDF1EE100A4FF6FF71C0F2C03120EA14
:10342000010040F04070E1EE100A7047000000001B
:103430000000000001020304060708090000000064
:103440000102030401020304060708090000010049
:10345000020001000300010002000100040001005D
:10346000020001000300010002000100050001004C
:10347000020001000300010002000100040001003D
:10348000020001000300010002000100060001002B
:10349000020001000300010002000100040001001D
:1034A000020001000300010002000100050001000C
:1034B00002000100030001000200010004000100FD
:1034C00002000100030001000200010007000100EA
:1034D00002000100030001000200010004000100DD
:1034E00002000100030001000200010005000100CC
:1034F00002000100030001000200010004000100BD
:1035000002000100030001000200010006000100AA
:10351000020001000300010002000100040001009C
:10352000020001000300010002000100050001008B
:10353000020001000300010002000100040001007C
:1035400002000100030001000200010068656C6CCC
:103550006F007361792068656C6C6F20776F726C97
:10356000640076657273696F6E0073686F772052BE
:10357000542D5468726561642076657273696F6E4C
:1035800020696E666F726D6174696F6E005F5F6354
:103590006D645F76657273696F6E0073686F772014
:1035A00052542D5468726561642076657273696F38
:1035B0006E20696E666F726D6174696F6E006C6902
:1035C00073745F746872656164006C6973742074ED
:1035D0006872656164005F5F636D645F6C697374DA
:1035E0005F746872656164006C69737420746872DA
:1035F000656164006C6973745F73656D006C6973F9
:10360000742073656D6170686F726520696E2073D8
:10361000797374656D005F5F636D645F6C6973746B
:103620005F73656D006C6973742073656D6170689C
:103630006F726520696E2073797374656D006C69B3
:1036400073745F6D61696C626F78006C697374206C
:103650006D61696C20626F7820696E207379737474
:10366000656D005F5F636D645F6C6973745F6D614E
:10367000696C626F78006C697374206D61696C208D
:10368000626F7820696E2073797374656D006C6960
:1036900073745F74696D6572006C6973742074690A
:1036A0006D657220696E2073797374656D005F5F5C
:1036B000636D645F6C6973745F74696D6572006CCF
:1036C0006973742074696D657220696E20737973F3
:1036D00074656D006C697374006C69737420616C3F
:1036E0006C2073796D626F6C20696E2073797374CE
:1036F000656D005F5F636D645F68656C7000525458
:103700002D546872656164207368656C6C2068650F
:103710006C702E005F5F636D645F7073004C697343
:1037200074207468726561647320696E20746865C2
:103730002073797374656D2E005F5F636D645F66DF
:103740007265650053686F7720746865206D656DDC
:103750006F727920757361676520696E2074686582
:103760002073797374656D2E006C6973745F6D6579
:103770006D006C697374206D656D6F72792075735F
:1037800061676520696E666F726D6174696F6E0046
:10379000080068617264206661756C74206F6E2029
:1037A00068616E646C65720D0A0D0A00686172646E
:1037B000206661756C74206F6E2074687265616438
:1037C0003A2025730D0A0D0A004650552061637496
:1037D000697665210D0A006D656D206D616E61670A
:1037E00065206661756C743A0A00757361676520BF
:1037F0006661756C743A0A00627573206661756C57
:10380000743A0A005343422D3E424641523A253013
:1038100038580A005343422D3E4D4D41523A25300F
:1038200038580A0064656163746976617465640A76
:10383000006661696C656420766563746F722066EA
:10384000657463680A00252D2A2E73207072692022
:1038500020737461747573202020202020737020E1
:1038600020202020737461636B2073697A65206D5A
:1038700061782075736564206C6566742074696373
:103880006B20206572726F720A0064656275672032
:103890006576656E740A007230303A2030782530D3
:1038A00038780A007230313A203078253038780A7A
:1038B000007230323A203078253038780A00723081
:1038C000333A203078253038780A007230343A2084
:1038D0003078253038780A007073723A20307825B5
:1038E0003038780A0020696E697420202000206337
:1038F0006C6F736520200020726561647920200060
:10390000494E5650432000554E414C49474E454480
:103910002000494E565354415445200044414343EE
:1039200056494F4C20004941434356494F4C2000D3
:1039300044495642595A45524F20004E4F43502059
:10394000004D53544B45525220004D554E53544B4D
:103950004552522000494D50524543495345525219
:103960002000494255534552522000554E44454689
:10397000494E53545220005343425F434653525FD3
:10398000424653523A307825303258200053434251
:103990005F434653525F4D4653523A30782530329A
:1039A0005820005343425F434653525F554653529B
:1039B0003A30782530325820006D736820005F5F00
:1039C000636D645F002563002073757370656E64BA
:1039D000002072756E6E696E67002573000000002E
:1039E000953100088D310008F13200086933000874
:1039F0006D0C0008ED0B0008A118000875180008F0
:103A0000893100086D120008913100084C3500081A
:103A10005235000855180008623500086A3500085C
:103A2000093400088D3500089B350008093400086A
:103A3000BE350008CA3500085D1C0008D6350008F0
:103A4000E83500085D1C0008F4350008FD35000865
:103A5000451B00081636000825360008451B0008DF
:103A60003E3600084B360008A119000863360008EE
:103A700076360008A11900088E360008993600082D
:103A8000D11D0008AE360008BF360008D11D000861
:103A9000D4360008D9360008D5180008F3360008D7
:103AA000FE36000819200008143700081D370008EA
:103AB0002F12000839370008443700082512000883
:103AC0006937000872370008D51A0008F03A000874
:103AD0000000002048000000EC010008383B00080E
:103AE00048000020404800000C02000800000000D0
:103AF000007A030A010000000800002008000020EE
:103B000078000000020000001800002018000020CB
:103B100020000000050000002800002028000020F0
:103B2000300000000A0000003800002038000020AB
:083B30002C0000000000000061
:040000050800018965
:00000001FF
