:020000040800F2
:100000008807002039020008D5030008CD03000846
:10001000D103000815030008C50700080000000010
:100020000000000000000000000000004B0200087B
:1000300019030008000000004F02000851020008E8
:10004000530200085302000853020008530200083C
:10005000530200085302000853020008530200082C
:10006000530200085302000853020008530200081C
:10007000530200085302000853020008530200080C
:1000800053020008530200085302000853020008FC
:1000900053020008530200085302000853020008EC
:1000A00053020008530200085302000853020008DC
:1000B00053020008530200085302000853020008CC
:1000C00053020008530200085302000853020008BC
:1000D000530200081D0600085302000853020008DE
:1000E000530200085302000853020008530200089C
:1000F000530200085302000853020008530200088C
:10010000530200085302000853020008530200087B
:10011000530200085302000853020008530200086B
:10012000530200085302000853020008530200085B
:10013000530200085302000853020008530200084B
:10014000530200085302000853020008530200083B
:10015000530200085302000853020008530200082B
:10016000530200085302000853020008530200081B
:10017000530200085302000853020008530200080B
:10018000530200085302000800F002F800F044F89F
:1001900014A696E8000CB244B344DA4501D100F04D
:1001A0003BF8BAE80F000FA696E83000A5EB04056F
:1001B00004EB0607AAEB0704A7F101074FEA1515A0
:1001C0004FEA3414A4F10104AC4201D300F024F846
:1001D00013F0010F18BFFB1A43F0010300F001F800
:1001E000DBE7184798070000A807000070470000E9
:1001F0000023002400250026103A28BF78C1FBD830
:10020000520728BF30C148BF0B6070471FB500F0D0
:10021000A0FB1FBD10B510BD00F04AF81146FFF756
:10022000F5FF00F039FB00F068F803B4FFF7F2FFC8
:1002300003BC00F0C9FA000009488047094800479C
:10024000FEE7FEE7FEE7FEE7FEE7FEE7FEE7FEE786
:10025000FEE7FEE704480549054A064B70470000E3
:100260002105000889010008880100208807002076
:1002700088030020880300207047000010B5044662
:1002800003E000F0FFFA401C09D014F8010B054907
:100290000028F6D1BDE810400A2000F0F3BA4FF074
:1002A000FF3010BD2C010020704770477047704729
:1002B000754600F02BF8AE4605006946534620F01F
:1002C0000700854618B020B5FFF7C4FFBDE8204001
:1002D0004FF000064FF000074FF000084FF0000B02
:1002E000AC46ACE8C009ACE8C009ACE8C009ACE871
:1002F000C00921F007018D46704710B50446AFF3E1
:1003000000802046BDE81040FFF78FBF00487047CF
:1003100000000020FEE70000704700002DE9F041DA
:10032000D1F8008000234FF0030C4FF0010E0024A1
:100330000FE000BFC268AA43C260CA79C5689A408C
:100340002A43C2600134102C03F1020308BFBDE848
:10035000F08128FA04F5ED07F4D006680CFA03F5ED
:10036000AE4306600E79076806FA03F2013E3A438F
:10037000012E0260DED88268EE43324082604A7904
:100380008E7987689A403A43826042680EFA04F791
:10039000BA43426006FA04F2466892B232434260BF
:1003A000C8E700001C2303EA810C6FF0030303EA93
:1003B000510108440F23016A03FA0CF399430162C7
:1003C000016A02FA0CF2114301627047FEE7000075
:1003D000FEE700007047000010B5C17800294EF21A
:1003E0000011CEF200011CD04EF60C52CEF20002EB
:1003F0001268072323EA12220F23C2F1040C23FA06
:1004000002FE427884785FFA8CF390F800C09A403C
:1004100004EA0E031A43120101EB0C0383F80023D4
:1004200000E080310078012300F01F0203FA02F29D
:10043000C0F3421041F8202010BD0000002943F60F
:100440003001C4F202010A680CBF22EA0000104326
:1004500008607047002943F64401C4F202010A68AB
:100460000CBF22EA000010430860704710B543F645
:100470000401C4F202014A6802F00C0342F2004295
:10048000082BC0F2F40206D0042B20D141F2002246
:10049000C0F27A021BE0D1F800C0D1F800E00B688E
:1004A0000EF03F0EC3F388145FEA4C2341F20023A1
:1004B000C0F27A0358BF1346B3FBFEF20B686243E7
:1004C000C3F30143022404EB4303B2FBF3F20260E3
:1004D0004A6840F66C13C2F30312C0F600039A5C3C
:1004E000046824FA02F242604C68C4F382241C5D62
:1004F00022FA04F484604968C1F34231595C22FA5B
:1005000001F1C16010BD00004EF21001CEF20001F9
:100510000A68042822F0040208BF04320A60704707
:1005200082B04EF6885CCEF2000CDCF8002043F678
:10053000000142F47002C4F20201CCF800200A6803
:100540004FF6FF7042F001020A6000228A600B68D9
:10055000CFF6F6601840086043F21000C2F2004087
:100560004860086820F480200860CA600192009208
:10057000086840F480300860086800F4003000909B
:10058000019801300190009818B90198B0F5A04F7A
:10059000F2D10868800354BF002001200090009829
:1005A000012834D1086C40F08050086447F2000004
:1005B000C4F20000026842F4404202608868886029
:1005C000886840F400408860886840F4A0508860E3
:1005D00045F20840C0F240704860086840F0807002
:1005E000086000BF08688001FCD540F20570C1F8C2
:1005F0000004886820F003008860886840F00200EA
:10060000886000BF886800F00C000828FAD14FF01D
:1006100000604CF8800C02B07047000010B541F249
:100620000004C4F20104204640F2255100F038F8DD
:1006300050B3204600F0C2F840F22811C2F2000187
:100640000B881AB2002A48BF10BD5C04C4B204D49F
:100650000D2C0CD142F4804015E048F2000300203C
:10066000CFF6FF730A2C08BF42EA03000BE040F20A
:1006700060006FF39F33C2F20000C454501C82B27A
:10068000C72A88BF0020088010BD00008289002989
:1006900018BF012122F4005242EA413181817047A2
:1006A000C1F34212022A06D0012A14BF00F114023B
:1006B00000F10C0201E000F110021288008801F044
:1006C0001F03090ADA40C840104000F001007047DB
:1006D000C1F3421301F01F0C1421022B08BF10219B
:1006E000012B4FF0010308BF0C21002A03FA0CF282
:1006F00043580CBF23EA02021A43425070470000DD
:1007000070B584B00446008A0D46C98820F4405074
:1007100008432082A0894EF6F3110840A9882A894F
:100720006B89084310431843A081A08AA98920F44B
:10073000407008436E46A0823046FFF797FE41F2B4
:10074000004144F48060C4F20101884214BF06F104
:10075000080006F10C000068B4F90C100122B1F198
:10076000FF3FC8BF02222B681921484303FA02F158
:10077000B0FBF1F048F21F51C5F2EB11A0FB0123D1
:100780005A096FF0630302FB0300B4F90C3003262F
:10079000B3F1FF3FC8BF042600FA06F000F13200B3
:1007A000A0FB01014FF00700C8BF0F2000EA511065
:1007B00040EA0210208104B070BD000080886FF311
:1007C0005F207047FEE700007047000010B5044648
:1007D0006FF00400FFF798FE40F28211E008C2F2C9
:1007E000000108704FF47A71484340F28011C2F260
:1007F0000001088010BD000010B547F65D124243AD
:10080000130E4FF407724EF2100103FB120E40F26A
:10081000801CCEF20001C2F2000C16D0BCF8000021
:10082000424300204A6088600C6844F001040C6078
:100830000C6804F00114012CFAD00C68013B24F080
:1008400001040C601C068860ECD15FEA0E4008BF12
:1008500010BDBCF800001FFA8EF250434860002023
:100860008860086840F00100086000BF086800F078
:1008700001100128FAD0086820F00100086000206B
:10088000886010BD41F20001C4F201010A885206DD
:10089000FCD5C2B28A8070474FF4E13000F012F804
:1008A000A820FFF793FF04A42046FFF7E7FC4FF4CE
:1008B0007A70FFF7A1FFF7E75375636365656421FD
:1008C0000D00000070B588B0054601200121FFF73A
:1008D000B5FD10200121FFF7BDFD41F20004C4F277
:1008E000010404F57046304609210722FFF75AFD3E
:1008F00030460A210722FFF755FD4FF4C0600690ED
:1009000040F20220C0F20010079006A93046FFF71F
:1009100005FD00204FF4402103900491ADF8140030
:1009200002A920460295FFF7EBFE20460121FFF7C2
:10093000ADFE204640F225510122FFF7C9FE40F2EC
:100940002530C0F20310019001A8FFF745FD08B063
:1009500070BDF1EE100A4FF6FF71C0F2C03120EA0F
:10096000010040F04070E1EE100A70470000000006
:100970000102030401020304060708098C090008A8
:0C0980000000002088070000F0010008C3
:040000050800018965
:00000001FF
